:100000000C9434000C943E000C943E000C943E0082
:100010000C943E000C943E000C943E000C943E0068
:100020000C943E000C943E000C943E000C943E0058
:100030000C943E000C943E000C943E000C943E0048
:100040000C943E000C943E000C943E000C943E0038
:100050000C943E000C943E000C943E000C943E0028
:100060000C943E000C943E0011241FBECFEFD8E04C
:10007000DEBFCDBF0E9440000C9466000C940000CF
:1000800084B1826084B985B1826085B9A0E8B0E0AE
:100090008C9181608C938C918D7F8C93E1E8F0E062
:1000A0008081877F80838C9180688C9380818B7F17
:1000B000808380818D7F80838081816080838AE1DD
:1000C00090E09093890080938800FFCFF894FFCF51
:00000001FF
